:020000040800F2
:10000000D00A0020F9320008A1030008A303000869
:10001000A7030008AB030008AF03000800000000BE
:10002000000000000000000000000000B303000812
:10003000B503000800000000B7030008B90300087A
:100040001333000813330008133300081333000878
:100050001333000813330008133300081333000868
:100060001333000813330008133300081333000858
:100070001333000813330008133300081333000848
:100080001333000813330008133300081333000838
:100090001333000813330008133300081333000828
:1000A0001333000813330008133300081333000818
:1000B0001333000813330008E15A00081333000813
:1000C00013330008133300081333000813330008F8
:1000D00013330008BB030008133300081333000870
:1000E00013330008133300081333000813330008D8
:1000F00013330008133300081333000813330008C8
:1001000013330008212600081333000813330008B6
:1001100013330008133300081333000813330008A7
:100120001333000813330008133300081333000897
:1001300000F002F800F06BF80AA090E8000C82448E
:100140008344AAF10107DA4501D100F060F8AFF26B
:10015000090EBAE80F0013F0010F18BFFB1A43F0A5
:1001600001031847E06B0000006C00000A444FF0E8
:10017000000C10F8013B13F0070408BF10F8014B06
:100180001D1108BF10F8015B641E05D010F8016B4B
:10019000641E01F8016BF9D113F0080F1EBF10F8AF
:1001A000014BAD1C0C1B09D16D1E58BF01F801CBD2
:1001B000FAD505E014F8016B01F8016B6D1EF9D555
:1001C0009142D6D37047000000230024002500266A
:1001D000103A28BF78C1FBD8520728BF30C148BFAA
:1001E0000B607047642906F04F82752906F04C8237
:1001F000782906F08582632906F01E84732906F0AB
:100200002384002070471FB51FBD10B510BD06F038
:100210007FFC1146FFF7F7FF00F099F806F09DFC10
:1002200003B4FFF7F2FF03BC03F006F810B586B085
:100230000446012144F2040003F008FC534803F093
:10024000EFFD4FF40070ADF8140018208DF8170082
:1002500003208DF8160005A94D4803F03BF94FF433
:100260008060ADF8140004208DF8170003208DF88D
:10027000160005A9464803F02DF901940020ADF8B9
:100280000800ADF80A00ADF80C00ADF810000C2025
:10029000ADF80E0001A93D4803F005FE25208DF8BC
:1002A000000003208DF801008DF8020001208DF878
:1002B0000300684603F045F8012240F22551334817
:1002C00003F089FE0121314803F079FE06B010BD2C
:1002D00008B501211C2003F0B9FB4FF4C850ADF85C
:1002E000000010208DF8030003208DF802006946FD
:1002F000274803F0EFF84FF4C851254803F097F969
:100300004FF4E050ADF8000010208DF803000320FA
:100310008DF8020069461F4803F0DCF84FF4E05105
:100320001C4803F084F94FF4E050ADF800001020B1
:100330008DF8030003208DF802006946164803F08B
:10034000C9F84FF4E051144803F071F908BD02F008
:1003500003FF4FF4A06002F0EFFF4FF41650FFF7D9
:1003600065FF00200D490880FFF7B2FF41F2883099
:1003700002F02FFF02F05EFE4FF4FA6002F029FF58
:1003800003E040F6B83002F024FFFAE700380140FD
:1003900000080140000C0140001001403C0000201A
:1003A000704700BFFEE700BFFEE700BFFEE700BFEB
:1003B000FEE7704770477047704770B540F22551AF
:1003C000F74803F0EDFE00287BD0F54803F068FE07
:1003D000C5B2F448008800F40040F8B9F14800883C
:1003E00000F4804090B10A2D03D00020ED49088030
:1003F00026E0EC48008840F40040EA4908800120EB
:10040000E94908700020E749088019E00D2D06D160
:10041000E448008840F48040E249088010E0E14868
:100420000088C0F30D00E1490D54DE480088401CEF
:10043000DC49088008460088022801DD0020088089
:10044000D94800780028BFD00020D7490870D74885
:100450000078082867D2DFE800F06604678CEBF4C8
:10046000F3F2D2484078442802D0552859D129E0E7
:10047000052002F078FD4FF48061CD4803F0D9F8F3
:100480004FF48051CA4803F0D2F8032002F065FD12
:1004900005240EE04FF40061C54803F0CAF8C820F7
:1004A00002F05BFD4FF40061C14803F0C0F8601E2C
:1004B000C4B2002CEEDC4FF48061BD4803F0B7F805
:1004C00030E06BE14FF48051B94803F0B2F80320FB
:1004D00002F043FD4FF48061B54803F0AAF805240B
:1004E00012E04FF40061B24803F0A1F8022002F0DC
:1004F00034FD4FF40061AE4803F09BF84FF41670E2
:1005000002F02BFD601EC4B2002CEADC4FF4006147
:10051000A74803F08EF84FF48061A54803F087F8F0
:1005200000E000BF00BF38E1A0484078442802D076
:1005300055281BD10EE0012002F015FD022198483C
:1005400003F0AAFD322002F044FE4421944803F057
:10055000A3FD0CE00221924803F09EFD322002F040
:1005600038FE55218E4803F097FD00E000BF00BF24
:1005700013E18E484078442802D0552855D125E013
:100580004FF480518B4803F054F84FF48071894840
:1005900003F04DF8032002F0E0FC05240EE04FF4D8
:1005A0000061844803F045F8C82002F0D6FC4FF4FF
:1005B0000061804803F03BF8601EC4B2002CEEDC02
:1005C0004FF480517B4803F032F82FE04FF48071F4
:1005D000784803F02EF8032002F0BFFC4FF480515E
:1005E000744803F026F8052412E04FF400617148C6
:1005F00003F01DF8022002F0B0FC4FF400616D48DA
:1006000003F017F84FF4167002F0A7FC601EC4B296
:10061000002CEADC4FF40061664803F00AF84FF45E
:100620008051644803F003F800E000BF00BFB4E06D
:100630005E484078442805D0552821D111E0A9E032
:1006400049E020E0012002F08EFC0421544803F030
:1006500023FD322002F0BDFD4421514803F01CFD72
:100660000FE0012002F0A8FC04214D4803F014FD26
:10067000322002F0AEFD5521494803F00DFD00E0A7
:1006800000BF00BF89E049484078442802D055287F
:100690001ED10EE0012002F066FC0521404803F067
:1006A000FBFC322002F095FD44213D4803F0F4FCB0
:1006B0000FE0012002F080FC0521394803F0ECFC3A
:1006C000322002F086FD5521354803F0E5FC00E0BC
:1006D00000BF00BF61E035484078442802D055286B
:1006E00055D125E04FF48051334802F0A2FF4FF47A
:1006F0008061314802F09BFF032002F02EFC0524AC
:100700000EE04FF400612C4802F093FFC82002F085
:1007100024FC4FF40061284802F089FF601EC4B237
:10072000002CEEDC4FF48051234802F080FF2FE0D4
:100730004FF48061204802F07CFF032002F00DFCA2
:100740004FF480511C4802F074FF052412E04FF46E
:100750000061194802F06BFF022002F0FEFB4FF42B
:100760000061154802F065FF4FF4167002F0F5FBCA
:10077000601EC4B2002CEADC4FF400610E4802F0A7
:1007800058FF4FF480510C4802F051FF00E000BFC9
:1007900000BF02E002F04EFC00BF00BF70BD0000D1
:1007A000003801403C0000200000002038000020FC
:1007B0000010014000080140000C01400CB5002071
:1007C000019000906C48006840F480306A490860ED
:1007D00000BF6948006800F4003000900198401C98
:1007E0000190009818B90198B0F5A06FF1D1624856
:1007F000006800F4003010B10120009001E00020FA
:1008000000900098012843D15C48006840F0100037
:100810005A4908600846006820F00300086008464E
:10082000006840F002000860534840685249486040
:100830000846406848600846406840F48060486068
:100840000846406820F47C1048600846406840F440
:10085000E81048600846006840F08070086000BFFB
:100860004548006800F000700028F9D04248406810
:1008700020F00300404948600846406840F002000C
:10088000486000BF3C48406800F00C000828F9D1DF
:100890000CBD10B5FFF792FF10BD10B536480068CB
:1008A00040F0010034490860084640683449084077
:1008B0003149486008460068324908402E490860BE
:1008C0000846006820F4802008600846406820F44C
:1008D000FE0048604FF41F008860FFF7DAFF4FF01A
:1008E00000602949086010BD10B5002100200022D9
:1008F000214B5B6803F00C0121B1042906D00829C3
:1009000028D107E0214B224C236027E01F4B204CCD
:10091000236023E0184B5B6803F47010164B5B6890
:1009200003F48032022303EB904022B9194B434376
:10093000174C23600DE0104B5B6803F4003323B1C8
:10094000144B4343124C236003E0104B4343104CC1
:10095000236003E00D4B0E4C236000BF00BF064B2D
:100960005B68C3F303130C4CE15C094B1B68CB4081
:10097000074C236010BD0000001002400020024020
:100980000000FFF8FFFFF6FE08ED00E000127A001D
:100990000400002000093D000800002070B5054655
:1009A000002405E0601CC4B2C82C01DD002070BD2D
:1009B0000221774803F0FDF90028F3D02946744856
:1009C00003F0A4F9002405E0601CC4B2C82C01DDCA
:1009D0000020ECE701216E4803F0EBF90028F3D08A
:1009E0006B4803F095F9C0B2E1E700B587B001218B
:1009F000082003F02BF80121880303F034F84FF4AA
:100A00006040ADF8180018208DF81B0003208DF809
:100A10001A0006A95F4802F05DFD4FF460415D4891
:100A200002F005FE0020ADF804004FF48270ADF82E
:100A300006000020ADF808000220ADF80A000120F1
:100A4000ADF80C004002ADF80E003820ADF81000F3
:100A50000020ADF812000720ADF8140001A94C48A1
:100A600003F07EF801214A4803F01FF9FF20FFF749
:100A700095FF07B000BD10B50446454800884FF605
:100A8000C771084042490880084600882043088012
:100A900001213F4803F009F910BD70B50546002457
:100AA00005E0601CC4B2C82C01DD002070BD02212D
:100AB000394803F07EF90028F3D02946364803F080
:100AC00025F9002405E0601CC4B2C82C01DD00201B
:100AD000ECE70121304803F06CF90028F3D02E48F0
:100AE00003F016F9C0B2E1E700B587B0012141F289
:100AF000040002F0ABFFE020ADF8180018208DF8DC
:100B00001B0003208DF81A0006A9244802F0E2FC1D
:100B1000E021224802F08BFD0020ADF804004FF4E4
:100B20008270ADF806000020ADF808000220ADF894
:100B30000A000120ADF80C004002ADF80E0038208C
:100B4000ADF810000020ADF812000720ADF8140039
:100B500001A9114803F004F801210F4803F0A5F89A
:100B6000FF20FFF79AFF07B000BD10B504460A4802
:100B700000884FF6C771084007490880084600887A
:100B8000204308800121044803F08FF810BD0000C5
:100B900000380040000C01400030014000080140D6
:100BA00001460020012900D011B9FE4B197000E068
:100BB000262070470146FC4A506820F0FF00084399
:100BC0005060704770B5044605E0F748456B05F086
:100BD000450000B100E0F8E700BF042004F021FC6C
:100BE00020B1042004F027FC032070BD012004F094
:100BF00018FC20B1012004F01EFC0120F5E7EA48B2
:100C00000069A04201D01020EFE740F2FF50E64912
:100C100088630846406908210840C0B2E5E72DE92D
:100C2000FC4107460D46002600240020009001905C
:100C30000820DE49086010204860402088600020BD
:100C4000C8604FF480600861084604F073FB102010
:100C5000FFF7B8FF044614B12046BDE8FC81D44834
:100C600000880004D149086037204860402088602F
:100C70000020C8604FF480600861084604F05AFB09
:100C80003720FFF79FFF04460CB12046E5E74FF001
:100C9000FF30C84908600820486030208860022082
:100CA000C8600020086101204861084604F06BFB21
:100CB0000020BE4908603320486040208860002042
:100CC000C8604FF480600861084604F033FB3320AD
:100CD000FFF778FF04460CB12046BEE70CE04FF466
:100CE000001004F09EFB38B104F06FFB4DF82600B5
:100CF000761C022E00D306E0AB48406B40F22A611E
:100D000008400028EBD000BF082004F08AFB20B187
:100D1000082004F090FB04209FE7022004F081FBF0
:100D200020B1022004F087FB022096E7202004F087
:100D300078FB20B1202004F07EFB06208DE74FF4E5
:100D4000007004F06EFB28B14FF4007004F073FBE8
:100D5000072082E740F2FF5004F06DFB0098000688
:100D6000009901F47F4140EA0120009901F47F01DC
:100D700040EA1120009940EA11606860019800067D
:100D8000019901F47F4140EA0120019901F47F01BA
:100D900040EA1120019940EA1160286020465CE792
:100DA0007CB50546002400200090019000260DB17E
:100DB000022600E000267C48406900F0007008B17F
:100DC0000E207CBD7A49098888B26946FFF727FF63
:100DD00004460CB12046F4E7019800F4802060B38B
:100DE000734800880004714908603720486040203B
:100DF00088600020C8604FF480600861084604F0F5
:100E000099FA3720FFF7DEFE04460CB12046D8E7FA
:100E100066480660062065494860402088600020DA
:100E2000C8604FF480600861084604F083FA062029
:100E3000FFF7C8FE04462046C3E72520C1E770B58A
:100E4000044600255C480078032801D1272070BDA6
:100E50005948007838B158480078012803D05648DE
:100E60000078022818D1022C01D32720EFE7E0B246
:100E7000FFF796FF05467DB94B48406820F4C05007
:100E80004949486008464068A1B240EAC120464945
:100E900048600846406848602846D8E710B50446D0
:100EA0004248046007204149486040208860002093
:100EB000C8604FF480600861084604F03BFA0720E0
:100EC000FFF780FE10BDF0B50146002000223A4B2E
:100ED0001B7881F85630364B1B88A1F85430374BBD
:100EE0001B681A0E93090B70C2F383034B7002F058
:100EF00003038B70314B1B68C3F30742CA702F4B3F
:100F00001B88C3F307220A712C4B1A784A715B685D
:100F10001A0E1301CB80294B5B68C3F30742CB88C1
:100F200043EA1213CB8002F00F030B72234B9B8812
:100F3000C3F30722D3094B72C2F380138B72C2F33F
:100F40004013CB72C2F300130B7300234B731A4B85
:100F50001B783BB1184B1B78012B03D0164B1B7829
:100F6000032B5ED193071B0D0B61144B1A790B6990
:100F700043EA82030B61114B9B681A0E0B6943EA2B
:100F800092130B61C2F3C2030B7502F007034B759A
:100F90000A4B9B68C3F3074253098B75C2F3820364
:100FA000CB750DE02000002000800140C80100202A
:100FB0001C000020DC01002018000020F4010020AB
:100FC00093075B0F0B76F74B1B89C3F307220B7E4E
:100FD00043EAD2130B760B695B1C0024C1E912347F
:100FE0000B7E9B1C012404FA03F3DC17D1E9125693
:100FF000A5FB037C06FB03C305FB0433C1E91273A5
:101000000C7A0123A3400B650024D1E912650B6D16
:10101000A6FB037C05FB03C306FB0433C1E9127383
:101020002EE0E14B1B78022B2AD1DE4B1A79930676
:101030009B0A0B61DB4B9B681A0E0B6943EA022388
:101040000B61D84B9B68C3F307420B6913430B61D9
:10105000D44B1B89C3F307220B695B1C4FF400744C
:10106000A3FB04464FF480630025A4FB037C06FB2E
:1010700003C304FB0533C1E912734FF400730B651E
:10108000C2F3801301F8193F93065B0E4B70C54BFA
:101090001A7A4B7843EAD2134B7002F07F038B70BD
:1010A000C04BDB681A0ED309CB70C2F341130B712E
:1010B000C2F382034B7193071B0F8B71B94BDB6833
:1010C000C3F307428B7943EA92138B71C2F3401347
:1010D000CB7100230B7202F001034B72B14B9B8961
:1010E000C3F30722D3098B72C2F38013CB72C2F30E
:1010F00040130B73C2F300134B73C2F381038B7362
:1011000002F00303CB73A74B1A7B53080B74012324
:101110004B74A64B1B681A0ECA741939A34B1B6873
:10112000C3F307421402CC85A04B1B88C3F30722EC
:10113000CB8D1343CB859D4B1A7814060C635B68EB
:101140001A0E0B6B43EA02440C63984B5B68C3F3C3
:1011500007420B6B43EA02240C63944B9B88C3F356
:1011600007220B6B13430B63904B1A7934235A54A9
:101170008E4B9B681A0E35235A548C4B9B68C3F3D5
:10118000074214068C63894B1B89C3F307228B6BC0
:1011900043EA02448C63854B1A7A8B6B43EA022440
:1011A0008C63824BDB681A0E8B6B13438B637F4B14
:1011B000DB68C3F307423C235B5C43EA12143C2325
:1011C0005C5413071C0DCC87784B9B89C3F3072213
:1011D000CB8F1343CB87754B1A7B540840235C5449
:1011E000012441235C54F0BD70B500264FF48035D6
:1011F00005E06F48446B04F0450000B103E02800AF
:10120000A5F10105F5D100BF15B104F0040028B126
:101210000326042004F00FF9304670BD012004F0CD
:1012200000F918B10126012004F005F940F2FF5041
:1012300004F001F93046F0E72DE9F04105460E468D
:101240004FF0000805E05A48476B07F0450000B131
:1012500000E0F8E700BF042004F0E3F828B1042020
:1012600004F0E9F80320BDE8F081012004F0D9F88A
:1012700020B1012004F0DFF80120F4E74C480069B8
:10128000A84201D01020EEE740F2FF5004F0D3F85E
:101290004748446904F4604018B9200C3080404647
:1012A000E1E704F4005008B11320DCE704F48040C7
:1012B00008B11020D7E704F4004008B10F20D2E7AE
:1012C0004046D0E738B500240120009004F01DF816
:1012D00008B9252038BD34480078042821D00020E2
:1012E0003449086002204860C02088600020C8603F
:1012F0004FF480600861084604F01CF8FFF774FFA3
:1013000004460CB12046E5E72948406927490860B2
:101310002748806948602648C06988602448006A78
:10132000C8602148007858B11F480078012807D0CC
:101330001D480078062803D01B480078022816D1E3
:1013400000201C490860032048604020886000207D
:10135000C8604FF480600861084603F0EBFF6946FF
:101360000320FFF769FF04460CB12046B2E70E48A0
:101370000078032820D1BDF8000000040D49086062
:1013800003204860402088600020C8604FF48060DF
:101390000861084603F0CEFFFFF726FF04465CB164
:1013A000204697E7F40100201800002004020020E6
:1013B00000800140C8010020FE480078042827D0A2
:1013C000BDF80000FC490860BDF800000004FB49BE
:1013D000086009204860C02088600020C8604FF481
:1013E00080600861084603F0A5FFFFF7FDFE044694
:1013F0000CB120466EE7F2484069F2490860F048B7
:1014000080694860EE48C0698860ED48006AC8603D
:1014100000205FE710B505E0E948446B04F04500A3
:1014200000B100E0F8E700BF042003F0FAFF20B1AC
:10143000042004F000F8032010BD40F2FF5003F038
:10144000FAFF0020F8E770B500264FF4803505E07C
:10145000DB48446B04F0450000B103E02800A5F12F
:101460000105F5D100BF15B104F0040028B1032631
:10147000042003F0E0FF304670BD04F0400018B1D6
:101480000026402003F0D7FF3046F5E770B5002571
:101490004FF4803404E0802003F0C3FF00B103E088
:1014A0002000A4F10104F6D100BF0CB9032070BDE7
:1014B00040F2FF5003F0BFFF2846F8E72DE9F04760
:1014C0000027002400260025A046A146B220BE49E0
:1014D00008750020086048608860C8600861084698
:1014E00003F0E8FE032003F005FF012003F0FFFEF8
:1014F00000BF12E00020B149086048608860C86001
:101500004FF480600861084603F014FFFFF7BEFF48
:10151000044604B903E0781CC7B24A2FEADB00BFD7
:1015200014B12046BDE8F0874FF4D570A349086098
:1015300008204860402088600020C8604FF4806028
:101540000861084603F0F6FEFFF77DFF044624B964
:101550000120984908704FF08049002097490860A1
:1015600037204860402088600020C8604FF48060C9
:101570000861084603F0DEFE3720FFF723FB044630
:10158000002C4BD134E000208C49086037204860A3
:10159000402088600020C8604FF4806008610846E1
:1015A00003F0C8FE3720FFF70DFB04460CB12046C0
:1015B000B8E7864849EA0000804908602920486069
:1015C000402088600020C8604FF4806008610846B1
:1015D00003F0B0FEFFF71EFF04460CB12046A1E762
:1015E00077484669012080EAD67080F001086D1CBA
:1015F000B8F1000F03D14FF6FF708542C3D34FF609
:10160000FF70854202D31B2420468BE706F0804002
:10161000060032D00220674908702EE01CE06C48BA
:101620006649086001204860402088600020C8604A
:101630004FF480600861084603F07CFEFFF7EAFE85
:1016400004460CB120466DE75D484669012080EAFA
:10165000D67080F001086D1CB8F1000F03D14FF671
:10166000FF708542DBD34FF6FF70854202D31B2407
:10167000204657E703204F490870204652E77CB5C3
:10168000002500240121302002F0E0F9012140F280
:10169000024002F0CEF94FF4F850ADF800001820E7
:1016A0008DF8030003208DF802006946494801F0D7
:1016B00011FF0420ADF8000018208DF8030003206E
:1016C0008DF802006946444801F004FF8020ADF81F
:1016D000000048208DF8030003208DF802006946C1
:1016E0003D4801F0F7FE03F0D7FD31208DF80400EE
:1016F00000208DF805008DF8060001208DF8070008
:1017000001A801F01EFEFFF7D9FE044614B9FFF749
:10171000D9FD04461CB93148FFF7D5FB044634B95E
:101720002E49B1F854100804FFF7B8FB04461CB961
:101730000120FFF784FB04461CB11E4800780328F3
:1017400012D1264890F8560020B1244890F856004F
:10175000012801D10A2500E004252846FFF72AFACE
:101760000020FFF71DFA044620467CBD10B500207E
:1017700003F0C0FD002010BD70B58CB006460C46CD
:1017800015460121022002F054F9154803F05AFCD5
:101790000021134803F023FD094880300190029690
:1017A0000395A008049000200590802006908000FA
:1017B000079017E0180000201C000020C80100203E
:1017C00000800140F4010020B001002000001080E2
:1017D0000080FF800010014000140140180200202A
:1017E0004404024080000890002009904FF400500B
:1017F0000A9000200B9001A9FA4803F0C5FC0021D3
:10180000F84803F0ECFC0CB070BD0146002002E08B
:101810004910421CD0B20129FAD170472DE9F84F86
:101820008146174698460A9C4FF0000AD3464D461B
:101830004FF0FF36B9F1000F02D12620BDE8F88F36
:101840000020E949C862E9480078022805D104026D
:10185000780A40EAC8574FEA68280020E4498860BF
:101860004860401E0860012048610020C86008618F
:10187000084603F088FDDC48406900F0007008B1BC
:101880000E20DBE7002C21DDB4F5006F1EDC601EAE
:101890002040D8B92046FFF7B8FF0090D548046033
:1018A0001020D4494860402088600020C8604FF470
:1018B00080600861084603F03DFD1020FFF782F9C3
:1018C0008246BAF1000F03D05046B7E72620B5E7AD
:1018D00000980001C6498860084644604FF0FF3018
:1018E0000860012048610220C860002008610846A5
:1018F00003F049FDBF4807601120BE494860402001
:1019000088600020C8604FF480600861084603F0DA
:1019100011FD1120FFF756F98246BAF1000F01D0F0
:1019200050468BE7B448007800285AD101F080FC7B
:1019300018E04FF4004003F074FD78B14FF0000B55
:1019400006E0A9488030006845F82B000BF1010B38
:10195000BBF1080FF5D32035A84E03E00EB90420E3
:101960006CE7761EA048406B40F22A6108400028D0
:10197000DFD0082003F055FD20B1082003F05BFD07
:1019800004205BE7022003F04CFD20B1022003F0AD
:1019900052FD022052E7202003F043FD20B1202019
:1019A00003F049FD062049E74FF4007003F039FDCC
:1019B00028B14FF4007003F03EFD07203EE703E03E
:1019C00003F003FD28602D1D4FF4001003F029FDE6
:1019D0000028F5D101F02EFC40F2FF5003F02BFD62
:1019E00032E08548007801282ED100222146484661
:1019F000FFF7C2FE002082490870824908708249C0
:101A000008707948C06B40F22A3108437649C863B0
:101A1000012003F08CFC00E0761E72484438006818
:101A200000F4005038B97848007820B9744800783C
:101A300008B9002EF0D10EB90420FFE670480078F6
:101A400010B16F4890F800A05046F7E62DE9FF5F0F
:101A500017469846DDE90E464FF00009CA464FF09A
:101A6000FF356A490098086000205F49C8625F48F6
:101A70000078022805D10402780A40EAC8574FEAE4
:101A8000682800205A4988604860401E086001208C
:101A900048610020C8600861084603F074FC5248A1
:101AA000406900F0007018B10E2004B0BDE8F09F4E
:101AB000002C21DDB4F5006F1EDC601E2040D8B97B
:101AC0002046FFF7A2FE83464A4804601020494999
:101AD0004860402088600020C8604FF48060086142
:101AE000084603F027FC1020FFF76CF88146B9F197
:101AF000000F03D04846D8E72620D6E7012E70D93C
:101B000006FB04F0B0F1007F01D32620CDE74FEAB9
:101B10000B103749886006FB04F048604FF0FF3037
:101B20000860012048610220C86000200861084662
:101B300003F029FC2F48076012202E4948604020FE
:101B400088600020C8604FF480600861084603F098
:101B5000F1FB1220FFF736F88146B9F1000F01D0F2
:101B60004846A2E72448007800287DD101F060FBB8
:101B70001EE04FF4004003F054FCA8B14FF0000AFF
:101B800008E01948803000682049096841F82A00B7
:101B90000AF1010ABAF1080FF3D31C48006820309B
:101BA0001A490860154D03E00DB904207DE76D1E4C
:101BB0000D48406B40F22A3108400028D9D0082057
:101BC00003F02FFC20B1082003F035FC04206CE763
:101BD000022003F026FCD8B1022003F02CFC0220E6
:101BE00063E7A4E0440402400080014018000020A4
:101BF000DC010020C801002020000020FFFF7F0042
:101C000022000020210000202300002024000020CA
:101C1000202003F006FC20B1202003F00CFC06205D
:101C200043E74FF4007003F0FCFB28B14FF4007061
:101C300003F001FC072038E709E003F0C6FBFA498E
:101C400009680860F8480068001DF74908604FF40B
:101C5000001003F0E6FB0028EFD14FF4807003F092
:101C6000E0FB20B3F14800E028E0007838B1EF480D
:101C70000078012803D0ED480078022817D1002011
:101C8000EB4908600C204860402088600020C86054
:101C90004FF480600861084603F04CFB0C20FEF70F
:101CA00091FF8146B9F1000F01D04846FDE601F0F1
:101CB000C1FA40F2FF5003F0BEFB38E0DD48007887
:101CC000012834D106FB04F100220098FFF754FDEF
:101CD0000020D94908700120D84908700020D8494F
:101CE0000870D848C06B40F22A310843D549C86310
:101CF0000846C06A40F00800C86200E06D1ED24885
:101D0000006800F4005008B9002DF7D10DB9042087
:101D1000CBE600BFCA48007818B9C7480078002849
:101D2000F8D0C548007810B1C34890F800904846F4
:101D3000BBE61CB50446002001900090C348008813
:101D40000004BB4908600D204860402088600020E6
:101D5000C8604FF480600861084603F0EBFAB948A8
:101D6000406B009002E0B748406B0090009800F094
:101D700045000028F7D0012003F053FB20B10120DB
:101D800003F059FB01201CBD042003F04AFB20B1E5
:101D9000042003F050FB0320F5E7AA4800690D2852
:101DA00001D01020EFE740F2FF5003F044FBA548BC
:101DB000406901900198C0F3432020700020E2E7C1
:101DC0002DE9FF5F86B017469846149D0026002037
:101DD000059004900024814603908246029001956C
:101DE000DDF818B0DDF818B0BBF1000F03D12620E4
:101DF0000AB0BDE8F09F00209249C862944988600B
:101E00004860401E0860012048610020C8600861E9
:101E1000084603F0B8FA8B48406900F0007008B13A
:101E20000E20E5E781480078022805D10502780AEE
:101E300040EAC8574FEA6828002D1FDDB5F5006F4E
:101E40001CDC681E2840C8B92846FFF7DEFC059058
:101E5000774805601020764948604020886000205F
:101E6000C8604FF480600861084603F063FA1020F0
:101E7000FEF7A8FE06461EB13046B9E72620B7E7B2
:101E80007248008800046A4908600D2048604020BC
:101E900088600020C8604FF480600861084603F045
:101EA00049FA0D20FEF78EFE06460EB130469FE73A
:101EB0006448406903904FF0FF341BE0641E6348A0
:101EC000008800045A4908600D204860402088605E
:101ED0000020C8604FF480600861084603F02AFAC9
:101EE0000D20FEF76FFE06460EB1304680E75548DE
:101EF00040690390039800F4807008B9002CDDD18C
:101F00000CB9292074E74A480760182048494860FE
:101F1000402088600020C8604FF480600861084657
:101F200003F008FA1820FEF74DFE06460EB13046C3
:101F30005EE7002041490870059800014449886027
:101F4000084645604FF0FF300860012048610020DE
:101F5000C8600861084603F016FA4FF0FF343548B0
:101F6000007800285FD101F063F943E04FF480402E
:101F700003F057FAC8B30198A0EB0900202821D23A
:101F80000198A0EB090000F0030020B90198A0EB34
:101F90000900800804E00198A0EB09008008401CBB
:101FA00002904FF0000A09E0DBF8000003F011FA9C
:101FB0000AF1010A0BF1040B09F1040902988245A8
:101FC000F2D30FE04FF0000A05E05BF82A0003F0BF
:101FD00000FA0AF1010ABAF1080FF6D30BF1200B4F
:101FE00009F120096FF0404404E0FFE70CB9042038
:101FF000FEE6641E1348406B40F21A610840002858
:10200000B4D0082003F00DFA20B1082003F013FA31
:102010000420EDE6022003F004FAD8B1022003F018
:102020000AFA0220E4E630E0240000201800002034
:10203000C8010020200000202200002021000020F4
:102040002300002000800140000402401C0000200A
:10205000DC010020102003F0E4F920B1102003F08F
:10206000EAF90520C4E64FF4007003F0DAF928B16C
:102070004FF4007003F0DFF90720B9E601F0DAF859
:1020800040F2FF50FC4988633EE0FC48007801289C
:102090003AD1102229460698FFF76EFB0020F84936
:1020A0000870F8490870F8490870F348C06B40F2AE
:1020B0001A310843F049C8630846C06A40F0080076
:1020C000C86200E0641EF148006800F4005008B9DE
:1020D000002CF7D11CB9FFF7D2FA042088E64FF0A4
:1020E000FF3400E0641EE848007820B9E448007836
:1020F00008B9002CF6D10CB9042079E6E048007844
:1021000010B1DF48007873E640F2FF5003F093F916
:1021100004A8FFF70EFE064603E004A8FFF709FE39
:1021200006463EB99DF810000728F6D09DF810002D
:102130000628F2D030465BE62DE9FF5F84B0DDE98A
:102140001247002600200390029000258046814619
:10215000019007FB04FBDDF810A0DDF810A0BAF138
:10216000000F03D1262008B0BDE8F09F0020C2492F
:10217000C862C74988604860401E08600120486105
:102180000020C8600861084603F0FDF8BA484069BD
:1021900000F0007008B10E20E5E7BE480078022884
:1021A00008D10402DDE90601400A40EAC1504912A3
:1021B000CDE90601002C1FDDB4F5006F1CDC601EAC
:1021C0002040C8B92046FFF720FB0390B2480460C6
:1021D0001020B1494860402088600020C8604FF45A
:1021E00080600861084603F0A5F81020FEF7EAFCBD
:1021F00006461EB13046B6E72620B4E7012F6FD958
:1022000007FB04F0B0F1007F01D32620ABE7A14823
:10221000007838B19F480078012803D09D480078A5
:1022200002282DD19D48008800049B490860372072
:102230004860402088600020C8604FF480600861DA
:10224000084603F077F83720FEF7BCFC06460EB1CF
:10225000304688E79048076017208F494860402043
:1022600088600020C8604FF480600861084603F071
:1022700061F81720FEF7A6FC06460EB1304672E75D
:102280008549069808601920486040208860002031
:10229000C8604FF480600861084603F04BF81920CD
:1022A000FEF790FC06460EB130465CE7039800014D
:1022B0007749886007FB04F048604FF0FF30086002
:1022C000012048610020C8600861084603F05BF8FF
:1022D0006A480078002871D1451E00F0A9FF40E04F
:1022E000F3E06548406B00F48040A8B3ABEB080016
:1022F00020281ED2ABEB080000F0030018B9ABEBAE
:102300000800800803E0ABEB08008008401C019047
:102310004FF0000909E0DAF8000003F05AF809F17B
:1023200001090AF1040A08F1040801988145F2D371
:102330000FE04FF0000905E05AF8290003F049F8D2
:1023400009F10109B9F1080FF6D30AF1200A08F1E1
:1023500020086FF0404504E0FFE70DB9042002E7D4
:102360006D1E4548406B40F21A3108400028B8D035
:10237000082003F056F820B1082003F05CF8042090
:10238000F1E6022003F04DF820B1022003F053F8EB
:102390000220E8E6102003F044F820B1102003F0FA
:1023A0004AF80520DFE64FF4007003F03AF830B148
:1023B0004FF4007003F03FF80720D4E62CE04FF410
:1023C000807003F02EF800B33248007838B13148FD
:1023D0000078012803D02F480078022815D100206A
:1023E0002D4908600C204860402088600020C860AB
:1023F0004FF480600861084602F09CFF0C20FEF755
:10240000E1FB06460EB13046ADE600F013FF40F2A8
:10241000FF5003F010F858E018480078012854D114
:1024200007FB04F110220498FFF7A6F900201449D5
:1024300008700120134908700020134908700E48E5
:10244000C06B40F21A3108430B49C8630846C06AA2
:1024500040F00800C8624FF0FF3500E06D1E0B48E9
:10246000006800F4005008B9002DF7D1C5B9FFF796
:1024700006F9042077E600000080014020000020DB
:102480002200002021000020230000200004024040
:10249000DC01002018000020C80100201C000020E2
:1024A0004FF0FF3500E06D1EC248007820B9C248E9
:1024B000007808B9002DF6D10DB9042053E6BE48C6
:1024C000007810B1BC4800784DE640F2FF5002F0B1
:1024D000B2FF02A8FFF72DFC064603E002A8FFF7B3
:1024E00028FC06463EB99DF808000728F6D09DF85E
:1024F00008000628F2D0304635E610B5AF48406BEC
:1025000000F4807070B3AE480078012814D1002028
:10251000AC4908600C204860402088600020C860FA
:102520004FF480600861084602F004FF0C20FEF7BB
:1025300049FBA149087002E000209F4908709F48AC
:10254000806B40F480709D4988630846C06B4CF2F4
:102550003A3188439949C8630120964908709648E2
:10256000007810BD022002F05CFF68B1022002F08A
:1025700062FF9248C06B4CF23A3188438F49C8637E
:1025800002208D490870ECE7082002F04AFF68B18C
:10259000082002F050FF8948C06B4CF23A31884362
:1025A0008649C863042084490870DAE7202002F0D5
:1025B00038FF68B1202002F03EFF8048C06B4CF22B
:1025C0003A3188437D49C86306207B490870C8E7D3
:1025D000102002F026FF68B1102002F02CFF77488F
:1025E000C06B4CF23A3188437449C8630520724984
:1025F0000870B6E74FF4007002F013FF70B14FF4AB
:10260000007002F018FF6D48C06B4CF23A318843FD
:102610006A49C863072068490870A2E70020A0E75C
:1026200010B5FFF76AFF10BD70B50446002514B958
:102630002625284670BD644800880004614908606A
:102640000D204860402088600020C8604FF4806002
:102650000861084602F06EFE0D20FEF7B3FA05464B
:102660000DB12846E6E75548406920602846E1E775
:1026700008B5002000906846FFF7D6FF08B1FF209C
:1026800008BD0098C0F34320FAE72DE9FE4F8346CA
:102690000C46914600200290002625462C467002EA
:1026A00040EAD5566D020BF00300F0B14FF0000A7E
:1026B00018E04FF4007000904FEA4A20471946EBAB
:1026C000E0733A464148FFF7A9F802904FF40072D0
:1026D0003E49584604F004F90BF5007B0AF101006D
:1026E00000F0FF0ACA45E4DB16E0B9F1010F09D199
:1026F0004FF400702A46334600905846FFF78EF894
:10270000029009E04FF400702A463346CDE90009F3
:102710005846FFF79BF902900298BDE8FE8F2DE91D
:10272000FE4F81460C469246002002900026254628
:102730002C46700240EAD5566D0209F00300F0B154
:102740004FF0000B18E04FF4007249461F4804F0A8
:10275000C7F84FF4007000904FEA4B20471946EB42
:10276000E0733A461948FFF72BFB029009F5007910
:102770000BF1010000F0FF0BD345E4DB16E0BAF1EA
:10278000010F09D14FF400702A46334600904846A5
:10279000FFF716FB029009E04FF400702A4633461B
:1027A000CDE9000A4846FFF7C7FC02900298BDE851
:1027B000FE8F000023000020220000200080014046
:1027C00021000020C80100201C0000207002002011
:1027D00010B504462046FEF760F910BD10B5202064
:1027E000FEF7C3F910BD10B51020FEF7BEF910BDFD
:1027F00008B50121D02001F029F94FF40050ADF8BF
:10280000000048208DF8030003208DF8020069467F
:10281000FE4800F05FFE4020ADF8000010208DF86B
:1028200003006946FA4800F055FEC020ADF80000EC
:1028300010208DF803006946F64800F04BFEFEF7C5
:1028400053F908BD70B505460C4600BFF248006854
:102850000028FBD0FFF7C2FF0120F04908600020EC
:10286000EF49C1F89C010220FFF7B2FF2846FFF7AD
:10287000AFFF2012FFF7ACFFE0B2FFF7A9FF012086
:10288000E649091D0860FFF7AEFF70BD70B505464B
:10289000002400BFE04800680028FBD0FFF79EFF3F
:1028A0000120DE4908600020DD49C1F89C010320B9
:1028B000FFF78EFF2846FFF78BFFFF20FFF788FF0B
:1028C00004464FF6FF7000EA0424FF20FFF780FF64
:1028D000204484B20120D149091D0860FFF783FF1D
:1028E000204670BD10B5002400BFCB48006800280A
:1028F000FBD0FF20FFF76CFF00240DE040F6040141
:102900000020FFF79FFF022000F063FC2046611CBF
:10291000CCB2642800DD06E00020FFF7B7FF40F6E8
:1029200004018842EAD100BF00BFBB48006800280C
:10293000FBD000240AE04FF418410320FFF782FF88
:102940002046611CCCB2642800DD05E00320FFF7BF
:102950009DFFB0F5184FEED100BF142000F039FCF8
:1029600010BD10B500240020AE490860142000F00E
:1029700030FC0120AA49C1F89801A849091D086046
:10298000A949C1F8980104E0601CC4B2322000F0EB
:10299000FCFBA148006808B9C82CF5DB142000F046
:1029A00018FCC82C01DB012010BD0020FCE710B58D
:1029B000FFF7D7FF42F220010B20FFF743FF4FF450
:1029C00002610020FFF73EFF00BF93480068002827
:1029D000FBD0FFF703FF0020904908605320FFF76A
:1029E000F7FEEF20FFF7F4FE6E20FFF7F1FE242044
:1029F000FFF7EEFE0020FFF7EBFE0020FFF7E8FEFA
:102A00000020FFF7E5FE0020FFF7E2FE642000F063
:102A1000E0FB01208249C1F8980100207F4908604D
:102A20004520FFF7D5FE7820FFF7D2FE6920FFF79B
:102A3000CFFE7420FFF7CCFE0020FFF7C9FE002078
:102A4000FFF7C6FE0020FFF7C3FE0020FFF7C0FE21
:102A5000642000F0BEFB012070490860002008607F
:102A60005320FFF7B5FEEF20FFF7B2FE6E20FFF711
:102A7000AFFE4420FFF7ACFE0020FFF7A9FE0020C8
:102A8000FFF7A6FE0020FFF7A3FE0020FFF7A0FE41
:102A9000642000F09EFB012060490860002008606F
:102AA0004520FFF795FE7820FFF792FE6920FFF79B
:102AB0008FFE7420FFF78CFE0020FFF789FE0020B8
:102AC000FFF786FE0020FFF783FE0020FFF780FE61
:102AD000642000F07EFB01205149C1F8980110BD2F
:102AE00010B5FFF73EFF4FF402610020FFF7AAFE8A
:102AF00000BF494800680028FBD0FFF76FFE0020A8
:102B0000464908604D20FFF763FEEA20FFF760FEAC
:102B10006D20FFF75DFE5420FFF75AFE0020FFF7FF
:102B200057FE0020FFF754FE0020FFF751FE002063
:102B3000FFF74EFE962000F04CFB01203849C1F80B
:102B400098010820FFF7A2FE10BD10B50446FFF75C
:102B50004AFE0020314908602046FFF739FE012077
:102B60002F49C1F8980110BD70B5044621460720D1
:102B7000FFF768FE0620FFF789FE0546284670BD70
:102B800070B504460D4621460720FFF75BFE00BFE7
:102B9000214800680028FBD029460620FFF752FE96
:102BA00070BD10B50446214641F60460FFF7E8FF0A
:102BB00010BD70B50820FFF769FE05460920FFF734
:102BC00065FE044644F66771601A8C421DD00DDC28
:102BD000A4F58040A0F5A270A8B1102812D0B0F5DD
:102BE0003F6F11D0B0F5416F38D10AE0A0F2E67026
:102BF000E8B1A0F6FF60D8B1A0F58050193868BBE5
:102C000000BF00BF00BF00BF00BF0FE000100140C9
:102C100000180140001C01403401224298812342E7
:102C200000802342980123420000234200BF00BFDE
:102C300068001921B0FBF1F40A20B4FBF0F100FBAD
:102C40001140052805D90A20B4FBF0F0401C80B2E1
:102C500070BD0A20B4FBF0F080B2F9E7E40804F09C
:102C60000304032C01D1012400E00024AA4800EB56
:102C70004410290B30F81100EAE710B541F6056061
:102C8000FFF772FF10BD10B541F60660FFF76CFF4D
:102C900010BD70B50546A148006878B10020A04974
:102CA0000860002404E0285DFFF792FD601CC4B2B8
:102CB000202CF8DB01209A49086001E0012070BD5A
:102CC0000020FCE770B588B0002604E000200DF875
:102CD0000600701CC6B2202EF8DB0020FFF7D6FDE0
:102CE000044644F0080444F0040421460020FFF7A1
:102CF000A9FD00250EE06846FFF7CBFF50B905F1AE
:102D0000200085B20020FFF7C1FD044604F0080052
:102D100000B902E0B5F5006FEDDB00BFB5F5006F5F
:102D200019DAFFF7B0FFC4B2002604E0E0B20DF8F4
:102D30000600701CC6B2202EF8DB002506E06846AF
:102D4000FFF7A7FF10B905F1200085B240F6040097
:102D50008542F4DB01E0FFF7C5FD0820FFF796FD93
:102D600004460920FFF792FD204484B21CB1FFF70E
:102D7000F8FDFFF7B7FD08B070BD10B500210420C5
:102D8000FFF760FD00210420FFF75CFD10BD10B5CA
:102D900000240420FFF77AFD0446204610BD2DE9EB
:102DA000F0470446884600252DE02846691C8DB270
:102DB00034F810702846691C8DB234F8106006F49F
:102DC000004088B1C6F30E062846691C8DB234F85F
:102DD000109003E0F8B24946FFF734FD3000A6F149
:102DE00001018EB20FD0F5E708E02846691C8DB2CC
:102DF00034F81090F8B24946FFF724FD3000A6F1F0
:102E000001018EB2F1D14545CFDBBDE8F08770B549
:102E100005460024C5F1FE0084B24FF6FF7000EABB
:102E20000424C5F1FE00204484B221460B20FFF7A4
:102E300009FD70BD2DE9F04706460F4690461D4638
:102E40000024A14605B90AE0082D04DDA5F108001B
:102E50004FFA80F903E0A5F109004FFA80F909F073
:102E60000F044FF6FF7000EA041408F00F0004444A
:102E70004FF6FF7000EA041407F00F0004444FF609
:102E8000FF7000EA041406F00F00204484B22146CB
:102E90000220FFF7D7FCBDE8F08770B5054600209B
:102EA000FFF7F4FC044605F0010010B144F01004F3
:102EB00001E024F0200405F0020010B144F0800489
:102EC00001E024F0800421460020FFF7BBFC70BD28
:102ED000704710B5F3214CF21700FFF751FE0C219B
:102EE0004CF24000FFF74CFE10BD10B50D490878BC
:102EF000FFF78DFF0B4C2379E278A1786078FFF71C
:102F000099FF21464879FFF7C8FF21468879FFF7E6
:102F1000DFFFFFF7DEFF10BD7E6B000834012242A9
:102F2000988123422800002008B50121082000F0E4
:102F30008DFD4FF4E050ADF8000010208DF8030037
:102F400003208DF802006946804800F0C3FA4FF470
:102F5000E0517E4800F06BFB08BD002100E0491CF9
:102F60008142FCD3704770B5044600254FF4805170
:102F7000764800F05EFB4FF48061744800F057FB28
:102F80000320FFF7EAFF25460EE04FF400616F488B
:102F900000F04FFBC820FFF7E0FF4FF400616B48E3
:102FA00000F045FB681EC5B2002DEEDC4FF48051E9
:102FB000664800F03CFB70BD70B5044600254FF438
:102FC0008061624800F035FB0320FFF7C6FF4FF435
:102FD00080515E4800F02DFB254612E04FF4006161
:102FE0005A4800F024FB0220FFF7B7FF4FF40061BE
:102FF000564800F01EFB4FF41670FFF7AEFF681E38
:10300000C5B2002DEADC4FF40061504800F011FB1E
:103010004FF480514D4800F00AFB70BD10B563209D
:10302000FFF7CAFF4FF4FA6000F0D3F83120FFF742
:103030009AFF10BD10B54FF48051454800F0F9FAE1
:103040000320FFF78AFF4FF48061414800F0F1FA56
:10305000632412E04FF400613D4800F0E8FA0220DA
:10306000FFF77BFF4FF40061394800F0E2FA4FF4BC
:103070001670FFF772FF601EC4B2002CEADC4FF43A
:103080000061334800F0D5FA4FF48061304800F019
:10309000CEFA4FF480712F4800F0CBFA0320FFF7EF
:1030A0005CFF4FF480512B4800F0C3FA632412E018
:1030B0004FF40061274800F0BAFA0220FFF74DFFF5
:1030C0004FF40061234800F0B4FA4FF41670FFF794
:1030D00044FF601EC4B2002CEADC4FF400611D48BE
:1030E00000F0A7FA4FF480511A4800F0A0FA4FF40C
:1030F0008061164800F09DFA0320FFF72EFF4FF481
:103100008051124800F095FA632412E04FF40061F8
:103110000E4800F08CFA0220FFF71FFF4FF4006109
:103120000A4800F086FA4FF41670FFF716FF601E8B
:10313000C4B2002CEADC4FF40061044800F079FAD4
:103140004FF48051014800F072FA10BD000C0140AC
:10315000001001400008014010B56FF0040000F0BD
:103160003AF92E4800682E49B0FBF1F02D4908705D
:103170000846007800EB4001C1EBC0104FF6FF712C
:1031800001EAC0002849088010BD0146254A12788E
:103190004A434FF0E0235A6100229A611A461269AD
:1031A00042F001021A6100BF4FF0E022106900F006
:1031B00001021AB100F48032002AF5D04FF0E0226B
:1031C000126922F001024FF0E0231A6100229A6195
:1031D00070470146144A12884A434FF0E0235A616F
:1031E00000229A611A46126942F001021A6100BF78
:1031F0004FF0E022106900F001021AB100F48032B1
:10320000002AF5D04FF0E022126922F001024FF0BF
:10321000E0231A6100229A61704700000400002038
:1032200000127A00300000203200002030BF7047CA
:1032300072B6704762B67047014600BF704700BF64
:103240002B4A128802F04002002AF9D0C2B2284B61
:103250001B1D1A80704710B586B00446012144F248
:10326000040000F0F3FB4FF40070ADF814000320ED
:103270008DF8160018208DF8170005A91D4800F0DC
:1032800029F94FF48060ADF8140004208DF8170080
:1032900005A9184800F01EF925208DF8000003202C
:1032A0008DF801008DF8020001208DF803006846BA
:1032B00000F047F801940020ADF80800ADF80A00CE
:1032C000ADF80C00ADF810000C20ADF80E0001A90F
:1032D000074800F0E8FD012240F22551044800F0C3
:1032E0007AFE0121024800F06AFE06B010BD00001F
:1032F000003801400008014009488047094800475C
:10330000FEE7FEE7FEE7FEE7FEE7FEE7FEE7FEE795
:10331000FEE7FEE704480549054A064B70470000F2
:103320009B08000831010008D0040020D00A0020CA
:10333000D0060020D006002031490143314A1160F7
:10334000704770B5002100230F22C47804B32D4CC0
:10335000246804F4E064C4F5E064210AC1F10403C4
:10336000CA40447804FA03F18478144021430901E7
:10337000254C0678A155047804F01F050124AC40C3
:1033800005786D11AD0005F1E025C5F8004109E0B3
:10339000047804F01F050124AC401C4D067876111A
:1033A00045F8264070BD1A4A0A400243154B1B1FC0
:1033B0001A60704739B1134A121D12680243114B4B
:1033C0001B1D1A6006E00F4A121D126882430D4B46
:1033D0001B1D1A607047042808D14FF0E0210969CD
:1033E00041F004014FF0E022116107E04FF0E021CD
:1033F000096921F004014FF0E022116170470000DB
:103400000000FA050CED00E000E400E080E100E0DF
:1034100080FFFF1F10B50446CC48844208D101212B
:10342000042000F02DFB0021042000F029FB46E0E1
:10343000C748844208D10121082000F021FB002167
:10344000082000F01DFB3AE0C248844208D1012167
:10345000102000F015FB0021102000F011FB2EE0E1
:10346000BD48844208D10121202000F009FB002141
:10347000202000F005FB22E0B848844208D1012159
:10348000402000F0FDFA0021402000F0F9FA16E09B
:10349000B348844208D10121802000F0F1FA0021D4
:1034A000802000F0EDFA0AE0AE48844207D1012105
:1034B000801500F0E5FA0021A01500F0E1FA10BD3A
:1034C00010B50121084600F0DBFA0021012000F0D0
:1034D000D7FA10BD2DE9F041024600250026002054
:1034E00000230024002791F803C00CF00F0591F889
:1034F00003C00CF0100CBCF1000F03D091F802C017
:103500004CEA050591F800C0BCF1000F31D01468F9
:1035100000202BE04FF0010C0CFA00F3B1F800C0D2
:103520000CEA03069E4220D183004FF00F0C0CFAE8
:1035300003F7BC4305FA03FC4CEA040491F803C00A
:10354000BCF1280F06D14FF0010C0CFA00FCC2F8B8
:1035500014C00AE091F803C0BCF1480F05D14FF048
:10356000010C0CFA00FCC2F810C0401C0828D1D392
:103570001460B1F800C0BCF1FF0F34DD54680020C6
:103580002EE000F1080C4FF0010808FA0CF3B1F836
:1035900000C00CEA03069E4221D183004FF00F0CBD
:1035A0000CFA03F7BC4305FA03FC4CEA040491F857
:1035B00003C0BCF1280F05D100F1080C08FA0CF883
:1035C000C2F8148091F803C0BCF1480F07D100F194
:1035D000080C4FF0010808FA0CF8C2F81080401CE3
:1035E0000828CED35460BDE8F0814FF6FF7101800A
:1035F000022181700421C170704702460020936847
:103600000B400BB1012000E00020704701468868A4
:1036100080B2704702460020D3680B400BB10120F6
:1036200000E0002070470146C86880B27047016121
:103630007047416170470AB1016100E04161704724
:10364000C16070474FF480320A43826181618261B8
:1036500082698269704702460020434B18684FF622
:103660008073184040EA021008433F4B18607047CF
:103670003E49C8617047F0B50A4600230024002186
:10368000002500F00046B6F1004F02D1364EF16938
:1036900001E0354E7168C0F3034583B200F4401673
:1036A000B6F5401F08D121F070612F4E766826F0E4
:1036B00070662D4F7E6012E000F48016B6F5801F14
:1036C00006D1032606FA05F4A14341F0706106E035
:1036D000460D360103FA06F6B14341F0706122B19E
:1036E000460D360103FA06F6314300F00046B6F106
:1036F000004F02D11C4EF16101E01B4E7160F0BD24
:1037000030B500228B071C0F0F2303FA04F2164B6F
:1037100008338C1053F824309343134C08348D1025
:1037200044F8253023468C1053F824308C07240F9E
:1037300000FA04F423430C4C08348D1044F825306F
:1037400030BD0A49DC3108607047000000080140C4
:10375000000C01400010014000140140001801401D
:10376000001C0140002001400000014000002042F8
:10377000DF48006840F00100DD4908600846406805
:10378000DC490840DA49486008460068DA490840E0
:10379000D74908600846006820F480200860084681
:1037A000406820F4FE0048604FF41F0088607047B6
:1037B000CF49096821F48031CD4A1160114609686A
:1037C00021F480211160B0F5803F03D0B0F5802F47
:1037D0000ED106E0C649096841F48031C44A11603F
:1037E00007E0C349096841F4A021C14A116000E023
:1037F00000BF00BF704710B5014600220023002023
:103800004A11012A02D1BA4C236806E0022A02D1E9
:10381000B74C236A01E0B64C636A01F01F02012431
:1038200094401C400CB1012000E0002010BD38B5D0
:10383000002000900024002500BF3120FFF7DBFFAF
:1038400005460098401C00900098B0F5A06F01D08C
:10385000002DF2D03120FFF7CEFF08B1012400E0A7
:103860000024204638BD01460020A14A106820F0FF
:10387000F80040EAC10010607047A0490860704736
:10388000024600209A4B586820F47C1042EA01035B
:103890001843974B5860704798490866704701462F
:1038A0000020934A506820F003000843506070479E
:1038B0008F48406800F00C007047014600208C4A99
:1038C000506820F0F0000843506070470146002027
:1038D000874A506820F4E060084350607047014612
:1038E0000020834A506820F4605040EAC1005060D4
:1038F000704729B17E4A527A02437D4B5A7204E0E6
:103900007B4A527A82437A4B5A7270477B49D8314C
:103910000860704701460020754A506820F4404016
:103920000843506070470021714A20321170704A7C
:1039300082F82010012802D004280AD104E00121D5
:103940006B4A2032117005E00521694A203211705E
:1039500000E000BF00BF70476949086070476449D4
:10396000096A0143624A1162704765494439086037
:10397000704730B500210022002400235C4D6D68A3
:1039800005F00C0121B1042905D0082923D105E057
:103990005C4D056022E05B4D05601FE0544D6D6895
:1039A00005F47012524D6D6805F48034022505EB64
:1039B00092421CB9544D554305600BE04C4D6D6867
:1039C00005F400351DB1504D5543056002E04D4DE5
:1039D0005543056002E04B4D056000BF00BF444DFC
:1039E0006D6805F0F0010909484D6B5C0568DD4024
:1039F00045603F4D6D6805F4E061090A434D6B5C1D
:103A00004568DD4085603A4D6D6805F46051C90A2E
:103A10003E4D6B5C4568DD40C560354D6D6805F415
:103A20004041890B3A4D6B5CC568B5FBF3F5056108
:103A300030BD29B12E4A526902432D4B5A6104E030
:103A40002B4A526982432A4B5A61704729B1284A4E
:103A500092690243264B9A6104E0254A92698243A7
:103A6000234B9A61704729B1214AD2690243204B06
:103A7000DA6104E01E4AD26982431D4BDA61704765
:103A800029B11B4AD2680243194BDA6004E0184A94
:103A9000D2688243164BDA60704729B1144A126922
:103AA0000243134B1A6104E0114A12698243104B1E
:103AB0001A61704712494039086070470F49C8645D
:103AC00070470B49C87170470948406A40F08070E0
:103AD00007494862704701460020054A92680A403B
:103AE0000AB1012000E00020704701498872704748
:103AF000001002400000FFF8FFFFF6FE0000424207
:103B00008004424200127A0000093D003F0000207C
:103B10004F00002010B50446BE48844208D1012160
:103B20008014FFF7ADFF0021A014FFF7A9FF16E0F6
:103B3000B948844208D101210014FFF7AEFF0021EB
:103B40002014FFF7AAFF0AE0B448844207D10121FC
:103B5000C013FFF7A2FF0021E013FFF79EFF10BD87
:103B600010B50022028802F441520B884C8823438E
:103B70008C882343CC8823430C8923434C892343DB
:103B80008C892343CC8923431A430280838B4FF2D1
:103B9000FF74234083830B8A038210BD2DE9F04F0D
:103BA00085B005460C464FF0000902274FF000088B
:103BB0004FF0010B0026B246A88B4FF2400108409F
:103BC000A88302202884B5F81C90A068022801D19F
:103BD00000BF38E0A08810B94FF0010B01E04FF0B2
:103BE000020B8D48854200D100E000BF6846FFF718
:103BF000C0FEDDF800A0E088B0F5007F0AD14FEAF2
:103C00001A2000EB80004000A168B0FBF1F0401DDD
:103C100086B20BE04FEA4B10BAFBF0F000EB8000ED
:103C20004000A168B0FBF1F0401D86B20A20B6FB4F
:103C3000F0F606F00108A6EB0800C0F34F074FF6B8
:103C4000FF7000EA0828022F01DBFF2F02DD0227A8
:103C50004FF00008E08840EA080038432884A08834
:103C6000A1890843618808432188084340F4006023
:103C700040EA0909A5F81C9005B0BDE8F08F0021C5
:103C8000018041808180C180018141818181C18128
:103C90000721018270470021018041808180C1801D
:103CA0000221816000218181704721B1028842F0A8
:103CB0004002028004E002884FF6BF731A4002807F
:103CC000704721B1828B42F48062828304E0828B50
:103CD0004FF6FF331A408283704730B5002400232B
:103CE0000C110125A540ABB21AB185881D43858012
:103CF00002E085889D43858030BD1AB183880B43DF
:103D0000838002E083888B43838070478181704782
:103D10000146888970474FF6FF62914204D00288BD
:103D200042F48072028004E002884FF6FF631A407A
:103D30000280704721B1828842F00402828004E050
:103D400082884FF6FB731A408280704702884FF2D8
:103D5000FF731A40028002880A430280704701887C
:103D600041F480510180704721B1028842F4005231
:103D7000028004E002884DF6FF731A40028070470B
:103D800002460020012901D0108B00E0908A704784
:103D90000146088A7047B1F5804F04D1028842F489
:103DA0008042028004E002884BF6FF731A400280D2
:103DB00070470246002013890B400BB1012000E040
:103DC00000207047CA4302817047F0B502460020C8
:103DD00000240023002501F00F070126BE40B4B2E5
:103DE0000B1101269E40B3B2968806EA0305168998
:103DF000264016B10DB1012000E00020F0BD10B545
:103E0000002201F00F040123A3409AB2D34303819F
:103E100010BD00000030014000380040003C004070
:103E200010B50446FB48844209D101218803FFF7FD
:103E300027FE00214FF48040FFF722FE32E0F648D3
:103E4000844209D101214804FFF727FE00214FF4E5
:103E50000030FFF722FE25E0F048844209D101211D
:103E60008804FFF71AFE00214FF48020FFF715FEAB
:103E700018E0EB48844209D10121C804FFF70DFE88
:103E800000214FF40020FFF708FE0BE0E5488442D4
:103E900008D101210805FFF700FE00214FF4801032
:103EA000FFF7FBFD10BD2DE9F04786B005460E4635
:103EB0000024A24600BFA1460027B08900B100BF80
:103EC0002F462C8A4CF6FF700440F08804432C8265
:103ED000AC894EF6F3100440B088318908437189EB
:103EE00008430443AC81AC8A4FF6FF400440B089DC
:103EF0000443AC8201A8FFF73CFDC648874202D1CB
:103F0000DDF810A001E0DDF80CA0A88900F4004065
:103F100040B10AEBCA0000EB0A1031684900B0FB5F
:103F2000F1F807E00AEBCA0000EB0A1031688900DB
:103F3000B0FBF1F86420B8FBF0F004012009642123
:103F400001FB1089A88900F4004040B1322000EB49
:103F5000C900B0FBF1F000F00700044308E0322094
:103F600000EB09106421B0FBF1F000F00F000443F6
:103F70002C8106B0BDE8F0874FF416510160002196
:103F80008180C18001810C214181002181817047A4
:103F900010B502460020108A4FF2FF0318400B882C
:103FA0004C8823438C882343CC88234318431082B6
:103FB00010BD0021018041808180C180704721B106
:103FC000828942F40052828104E082894DF6FF73B7
:103FD0001A4082817047F0B5034600240026002570
:103FE000002040F66A17B94200D100BF1846C1F35D
:103FF000421401F01F06012707FA06F5012C01D132
:104000000C3004E0022C01D1103000E014301AB161
:1040100007682F43076002E00768AF430760F0BD01
:104020001AB1838A0B43838202E0838A8B438382A3
:104030007047028A4FF6F0731A400282028A0A43DE
:104040000282704782894FF2FF731A40828182890F
:104050000A438281704721B1828942F00202828143
:1040600004E082894FF6FD731A4082817047028A0C
:104070004FF6DF731A400282028A0A4302827047B7
:1040800021B1028A42F48042028204E0028A4BF6A5
:10409000FF731A4002827047C1F3080282807047A2
:1040A00001468888C0F308007047818941F001010A
:1040B00081817047028BD2B20283028B42EA0122D5
:1040C00002837047028B02F47F420283028B0A4311
:1040D0000283704721B1828A42F02002828204E08A
:1040E000828A4FF6DF731A408282704721B1828A3A
:1040F00042F01002828204E0828A4FF6EF731A4087
:104100008282704721B1828A42F00802828204E0F2
:10411000828A4FF6F7731A408282704721B18289F2
:1041200042F40042828103E08289C2F30E0282815E
:10413000704721B1828A42F40062828204E0828A5E
:104140004FF2FF731A4082827047828A4FF6FB73E8
:104150001A408282828A0A438282704721B1828A0F
:1041600042F00202828204E0828A4FF6FD731A4016
:104170008282704702460020B1F5007F00D100BF67
:1041800013880B400BB1012000E00020704701F4C0
:104190000072B2F5007F00D100BFCA4302807047B1
:1041A00070B50246002400230025002040F66A1660
:1041B000B14200D100BFC1F3421501F01F03012637
:1041C00006FA03F3012D02D19689334006E0022D51
:1041D00002D1168A334001E0968A33400C12012640
:1041E00006FA04F41688344013B10CB1012000E043
:1041F000002070BD10B50022002340F66A14A142D1
:1042000000D100BF0A1201249440A3B2DC43048011
:1042100010BD00000038014000440040004800404C
:10422000004C00400050004010B50446FE48844257
:1042300008D10121C014FFF723FC0021E014FFF78F
:104240001FFCC4E0B4F1804F08D101210846FFF7FC
:1042500024FC00210120FFF720FCB8E0F348844251
:1042600008D101210220FFF718FC00210220FFF7EE
:1042700014FCACE0EE48844208D101210420FFF791
:104280000CFC00210420FFF708FCA0E0E948844270
:1042900008D101210820FFF700FC00210820FFF7CA
:1042A000FCFB94E0E448844208D101211020FFF790
:1042B000F4FB00211020FFF7F0FB88E0DF48844288
:1042C00008D101212020FFF7E8FB00212020FFF783
:1042D000E4FB7CE0DA48844208D101214014FFF776
:1042E000CFFB00216014FFF7CBFB70E0D548844280
:1042F00009D10121C804FFF7C3FB00214FF40020BE
:10430000FFF7BEFB63E0D048844209D101210805D4
:10431000FFF7B6FB00214FF48010FFF7B1FB56E02A
:10432000CA48844209D101214805FFF7A9FB0021B1
:104330004FF40010FFF7A4FB49E0C548844208D1C0
:1043400001214020FFF7A9FB00214020FFF7A5FB3A
:104350003DE0C048844208D101218020FFF79DFB49
:1043600000218020FFF799FB31E0BB48844208D14F
:1043700001218015FFF791FB0021A015FFF78DFBB0
:1043800025E0B648844209D101210804FFF778FBF3
:1043900000214FF48030FFF773FB18E0B0488442EF
:1043A00009D101214804FFF76BFB00214FF40030D5
:1043B000FFF766FB0BE0AB48844208D1012188047B
:1043C000FFF75EFB00214FF48020FFF759FB10BD83
:1043D00000220288944B98420ED0994B98420BD001
:1043E000B0F1804F08D0914B984205D0904B984245
:1043F00002D0904B984204D14FF68F731A404B88ED
:104400001A438D4B984207D08C4B984204D04FF6FC
:10441000FF431A40CB881A4302808B8883850B8820
:104420000385814B98420BD0854B984208D08B4B2B
:10443000984205D08A4B984202D08A4B984201D1CB
:104440000B7A038601238382704770B50024002213
:104450000023058C4FF6FE7635400584028C838858
:10446000048B4FF68F752C40B51E2C400D882C43C5
:10447000751E2A400D892A434D882A436A4DA84259
:104480000BD06F4DA84208D0744DA84205D0744D92
:10449000A84202D0734DA84213D14FF6F7752A40B7
:1044A0004D892A434FF6FB752A408D882A434FF6E3
:1044B000FF652B404FF6FF552B408D892B43CD894F
:1044C0002B4383800483CD888586028470BD70B5BC
:1044D000002400220023058C4FF6EF76354005843A
:1044E000028C8388048B48F6FF752C404FF6FF45FD
:1044F0002C400D884FF6FF7606EA05252C434FF633
:10450000DF752A400D8906EA05152A434D8806EA1B
:1045100005152A43444DA84202D0494DA8421DD159
:104520004FF67F752A404D894FF6FF7606EA05154E
:104530002A434FF6BF752A408D8806EA05152A439F
:104540004FF6FF352B404FF2FF752B408D8906EA61
:1045500085052B43CD8906EA85052B43838004839B
:10456000CD880587028470BD70B500240022002329
:10457000058C4FF6FF6635400584028C8388848B5A
:104580004FF68F752C404FF6FC752C400D882C4350
:104590004FF6FF552A400D894FF6FF7606EA0525AE
:1045A0002A434D8806EA05252A431F4DA84202D01A
:1045B000234DA8421DD14FF2FF752A404D894FF679
:1045C000FF7606EA05252A434FF6FF352A408D88F7
:1045D00006EA05252A434EF6FF752B404DF6FF757A
:1045E0002B408D8906EA05152B43CD8906EA051572
:1045F0002B4383808483CD888587028470BD70B50A
:10460000002200230024058C4EF6FF7635400584F9
:10461000038C8488828B48F6FF752A404FF6FF454D
:104620002A400D8820E00000002C014000040040DA
:1046300000080040000C0040001000400014004042
:1046400000340140004C0140005001400054014042
:1046500000180040001C00400020004000400140C5
:1046600000440140004801404FF6FF7606EA052568
:104670002A434DF6FF752B400D8906EA05352B437D
:104680004D8806EA05352B43FA4DA84202D0FA4D73
:10469000A84208D14BF6FF752C408D894FF6FF7666
:1046A00006EA85152C4384808283CD88A0F840508B
:1046B000038470BD828B4FF2FF331A408283828B5A
:1046C0004FF6FF7303EA01231A4382837047F0B564
:1046D0000C461546002200210026078C4EF6FF7C72
:1046E00007EA0C070784828B018C4FF6FF7707EAF5
:1046F000043640F6FF473A404FF6FF7707EA0527B2
:104700003A434FF6FF7707EA03373A43D94FB842A7
:104710000ED0D94FB8420BD0B0F1804F08D0D74F50
:10472000B84205D0D64FB84202D0D64FB84206D1D3
:104730004DF6FF77394046F48057394305E047F698
:10474000FF57394044F48057394382830184F0BDD8
:10475000828B4FF6F3731A408283828B0A438283E3
:104760007047F0B50C461546002200210026078C44
:104770004FF6FF6C07EA0C070784828B018C4FF61B
:10478000FF7707EA04264FF60C773A404FF6FF779B
:1047900007EA03172F433A43B64FB8420ED0B64F3D
:1047A000B8420BD0B0F1804F08D0B44FB84205D01A
:1047B000B34FB84202D0B34FB84206D14FF6FF57BD
:1047C000394046F48077394305E04FF2FF573940CE
:1047D00044F48077394382830184F0BD028B4FF229
:1047E000FF331A400283028B4FF6FF7303EA012363
:1047F0001A4302837047F0B50C461546002200218B
:104800000026078C4FF6EF7C07EA0C070784028B23
:10481000018C4FF6FF7707EA041640F6FF473A404F
:104820004FF6FF7707EA03373A434FF6FF7707EA79
:1048300005273A438F4FB8420ED08F4FB8420BD066
:10484000B0F1804F08D08D4FB84205D08C4FB842A0
:1048500002D08C4FB84206D14FF6DF77394046F090
:104860001007394305E04FF65F77394044F01007F1
:10487000394302830184F0BD028B4FF6F3731A4073
:104880000283028B0A4302837047F0B50C4615463B
:1048900000220021068C4FF6FE773E400684028BF4
:1048A000018C4FF60C7632407E1C06EA03162E432E
:1048B0003243704EB0420ED06F4EB0420BD0B0F1CA
:1048C000804F08D06D4EB04205D06D4EB04202D040
:1048D0006C4EB04206D14FF6FD76314044F00106F1
:1048E000314305E04FF6F576314044F0010631439F
:1048F00002830184F0BD70B505460C465D488542D3
:104900000ED05D4885420BD0B5F1804F08D05B4892
:10491000854205D05A48854202D05A48854200D186
:1049200000E000BF208850B92389A288618828460A
:10493000FFF7ABFFE1882846FFF79EFF25E02088C0
:1049400004280AD12389A28861882846FFF753FFEB
:10495000E1882846FFF742FF17E0208808280AD19F
:104960002389A28861882846FFF7FBFEE188284654
:10497000FFF7EEFE09E02389A28861882846FFF749
:10498000A6FEE1882846FFF795FE70BD2DE9F041AF
:1049900005460C4600260127608808B9022600E07B
:1049A0000026A088012801D1022700E001272088E5
:1049B000A0B92389A28861882846FFF766FFE188AD
:1049C0002846FFF759FF23893A4631462846FFF724
:1049D00012FFE1882846FFF701FF13E02389A28830
:1049E00061882846FFF707FFE1882846FFF7F6FEB3
:1049F00023893A4631462846FFF747FFE188284693
:104A0000FFF73AFFBDE8F0810A884B881A438B888C
:104A10001A43CB881A430B891A434B891A438B8953
:104A20001A43A0F8442070474FF6FF71818000219F
:104A30000180C18041800172704700210180418066
:104A40008180C180018141818181C18170470021C4
:104A500001804180012181800021C1800181704756
:104A60000021018041808180C1800181418181815B
:104A700070470000002C0140003401400004004059
:104A800000080040000C004021B1028842F0010201
:104A9000028004E002884FF6FE731A4002807047DD
:104AA00031B1B0F8442042F40042A0F8442005E0BF
:104AB000B0F84420C2F30E02A0F8442070471AB1A7
:104AC00083890B43838102E083898B438381704711
:104AD0008182704741EA0203A0F8483070471AB15A
:104AE00083890B43838102E083898B4383817047F1
:104AF00001894FF6F8721140018170470A46002182
:104B000001894FF68F73194011430181704730B509
:104B100004460D4629462046FFF7F0FF208940F065
:104B20000700208130BD2DE9F04104460D461646B0
:104B30001F46602D06D13B46012231462046FFF735
:104B40005AFE05E03B46012231462046FFF79DFE16
:104B500029462046FFF7D2FF208940F00700208138
:104B6000BDE8F08130B50C4600210189C9B24FF68D
:104B7000FF7505EA0325154325432943018130BD0F
:104B80002DE9F04105460E46174698460024434657
:104B90003A4631462846FFF7E5FF2C894FF6F87074
:104BA000044044F007044FF68F70044044F0700452
:104BB0002C81BDE8F081F0B504460D4616461F462F
:104BC0003B46324629462046FFF7CCFF208940F479
:104BD00080402081F0BD0185828270470A46002115
:104BE00001884FF68F731940114301807047F0B56B
:104BF0000C4615461E460021002200230189028B27
:104C0000038C4FF6F877394021434FF6FC473A4082
:104C100040F201173A434FF6DD773B404FF6FF77FE
:104C200007EA06172F433B43018102830384F0BD4B
:104C30000A460021018B4FF68F73194011430183FF
:104C400070470A460021018B48F6FF7319404FF662
:104C5000FF7303EA02231943018370470A460021C8
:104C6000818B4FF68F7319401143818370470A4639
:104C70000021818B48F6FF7319404FF6FF7303EA5A
:104C8000022319438183704721B1028842F08002D8
:104C9000028004E002884FF67F731A40028070475A
:104CA00021B1828842F00402828004E082884FF6BB
:104CB000FB731A408280704721B1828842F008025B
:104CC000828004E082884FF6F7731A408280704732
:104CD00021B1828842F00102828004E082884FF68E
:104CE000FE731A40828070470A460021018B4FF6FE
:104CF000F77319401143018370470A460021018B65
:104D00004FF2FF7319404FF6FF7303EA0223194372
:104D1000018370470A460021818B4FF6F7731940D3
:104D20001143818370470A460021818B4FF2FF7344
:104D300019404FF6FF7303EA02231943818370473A
:104D40000A460021018B4FF6FB7319401143018382
:104D500070470A460021018B4FF6FF3319404FF68A
:104D6000FF7303EA02231943018370470A460021B7
:104D7000818B4FF6FB7319401143818370470A46BC
:104D80000021818B4FF6FF3319404FF6FF7303EA82
:104D900002231943818370470A460021018B4FF695
:104DA0007F7319401143018370470A460021018B2C
:104DB000C1F30E014FF6FF7303EA02231943018387
:104DC00070470A460021818B4FF67F7319401143CB
:104DD000818370470A460021818BC1F30E014FF693
:104DE000FF7303EA02231943818370470A460021B7
:104DF000018C4FF6FD7319401143018470470A4638
:104E00000021018C4FF6F77319401143018470475C
:104E10000A460021018C4FF6DF7319404FF6FF73ED
:104E200003EA02131943018470470A460021018CEA
:104E30004FF67F7319404FF6FF7303EA02131943CD
:104E4000018470470A460021018C4FF6FF53194038
:104E50004FF6FF7303EA02231943018470470A46A1
:104E60000021018C4FF2FF7319404FF6FF7303EAE4
:104E700002231943018470470A460021018C4DF634
:104E8000FF7319404FF6FF7303EA0233194301849D
:104E9000704730B5002301248C40A3B2048C9C439E
:104EA0000484048C02FA01F5ADB22C43048430BDB5
:104EB00030B5002304248C40A3B2048C9C430484AA
:104EC000048C02FA01F5ADB22C43048430BD70B5F8
:104ED0000346002000241846183001258D40ACB24E
:104EE0001D8CA5431D8409B1082909D100EB61007F
:104EF000056825F0700505600568154305600EE03E
:104F00000D1FC5F34E052844056825F4E0450560EE
:104F100005684FF6FF7606EA02263543056070BD48
:104F200021B1028842F00202028004E002884FF6BA
:104F3000FD731A400280704721B1028842F00402DA
:104F4000028004E002884FF6FB731A40028070472B
:104F500021B1828842F08002828004E082884FF68C
:104F60007F731A408280704702884FF6F7731A40A9
:104F7000028002880A430280704782884FF68F734E
:104F80001A40828082880A438280704702894FF6E5
:104F9000F8731A40028102890A430281704702892C
:104FA0004FF67F731A40028102890A4302817047DB
:104FB000818470478185704781867047018770477B
:104FC00081877047A0F84010704702884FF6FF4372
:104FD0001A40028002880A43028070470146888E88
:104FE00070470146088F70470146888F7047014619
:104FF000B1F8400070470146888C70470146088D23
:10500000704702460020138A0B400BB1012000E0DC
:1050100000207047CA430282704730B50246002024
:1050200000230024158A05EA0103958905EA010495
:1050300013B10CB1012000E0002030BDCA43028250
:105040007047000001684FF6FE72114001600021B8
:10505000016041608160C1608D49884208D18C49FE
:105060000839496841F00F01894A083A51608AE0DD
:1050700087491431884208D185490839496841F087
:10508000F001834A083A51607DE081492831884225
:1050900008D17F490839496841F470617C4A083A6F
:1050A000516070E07A493C31884208D1784908392A
:1050B000496841F47041764A083A516063E07449A6
:1050C0005031884208D172490839496841F4702149
:1050D0006F4A083A516056E06D496431884208D100
:1050E0006B490839496841F47001694A083A5160CE
:1050F00049E067497831884208D1654908394968EB
:1051000041F07061624A083A51603CE0614988426E
:1051100006D1011F096841F00F01021F116032E042
:105120005C491431884208D15A49091F096841F085
:10513000F001584A121F116025E056492831884273
:1051400008D15449091F096841F47061514A121F7E
:10515000116018E04F493C31884208D14D49091F80
:10516000096841F470414B4A121F11600BE0494934
:105170005031884207D14749091F096841F470211D
:10518000444A121F1160704710B50022026847F6AA
:10519000F0739A430C6A8B6823430C6923434C6970
:1051A00023438C692343CC6923434C6A23438C6A91
:1051B00023431A430260CB6843600B6883604B68EB
:1051C000C36010BD0021016041608160C160016168
:1051D00041618161C161016241628162704721B1B7
:1051E000026842F00102026004E002684FF6FE73BA
:1051F0001A40026070471AB103680B43036002E073
:1052000003688B43036070474160704701464868FC
:1052100080B2704701460020002201F080531BB18C
:105220001C4B083B1A6802E0194B083B1A6802EA5B
:1052300001030BB1012000E00020704700F0805115
:1052400019B11449091F086002E011490839486082
:10525000704701460020002201F080531BB10D4B26
:10526000083B1A6802E00A4B083B1A6802EA01038D
:105270000BB1012000E00020704700F0805119B10F
:105280000449091F086002E0014908394860704775
:10529000080002400804024000206F49086048608E
:1052A0008860C86048628862C8626C488863002071
:1052B000C86370470021684A516847F6FF6291430E
:1052C000027D83681A4343681A43C3681A4303681C
:1052D0001A4303691A4311435F4A51607047002122
:1052E0000175016041608160C160016170475C4986
:1052F000086070475849096821F00301564A116057
:10530000114609680143116070475348006800F076
:105310000300704729B1504AD26B02434E4BDA6307
:1053200004E04D4AD26B82434B4BDA6370474D49E0
:10533000086070470021484B02689A601A46D1689D
:105340006FF30A01D0E901231A43C3681A430369C2
:105350001A431143404AD160704700210160416007
:105360008160C160016170473B480069C0B270470D
:1053700008B50146002000903748143008440090DA
:105380000098006808BD0021334B02685A624268E9
:105390009A621A46D16A21F0F701D0E902231A4332
:1053A00003691A4343691A4311432B4AD162704778
:1053B0004FF0FF310160002141608160C1600161F7
:1053C000416170472448006B704723488030006873
:1053D000704721498031086070471F48806C7047D2
:1053E00020491431086070471E4918310860704721
:1053F0001C491C31086070471A4920310860704709
:105400001949086070471849091D08607047012153
:105410008143154A08321160704713490C31086006
:105420007047014600200C4A526B0A400AB1012025
:1054300000E000207047084988637047014600205B
:10544000054A526B0A400AB1012000E00020704773
:10545000014988637047000000800140FF07C000D9
:10546000A00030428C053042AC01304210B58CB007
:1054700004461E230BAA03A9204600F0ABFE0090B1
:10548000009810B101200CB010BD9DF82C00044410
:1054900000200B900EE040489DF82C2050F8221080
:1054A00003A800F0FFFD00B908E09DF82C00401CA7
:1054B000C0B20B909DF82C000728ECD300BF9DF8DC
:1054C0002C00072863D2DFE800F004053C5E656429
:1054D000630000BF31A001F07BF831A001F078F843
:1054E0003FA001F075F84EA001F072F85CA001F049
:1054F0006FF86BA001F06CF879A001F069F886A054
:1055000001F066F88BA001F063F890A001F060F85C
:1055100094A001F05DF899A001F05AF89EA001F066
:1055200057F8A4A001F054F8B0A001F051F8BDA0C4
:1055300001F04EF8C8A001F04BF8D4A001F048F8F3
:105540009AE216A001F044F8E0A001F041F8002032
:105550000B900EE0ED4800689DF82C2000EBC20097
:105560004168EBA001F034F89DF82C00401CC0B25B
:105570000B90E648007D9DF82C108842EADC07A0DD
:1055800001F026F878E205A001F022F8C4E171E20A
:1055900045E219E2ECE10000540000200D0A000091
:1055A0002D2D2D2D2D2D2D2D2D2D2D2D2D2D2D2D2B
:1055B0002D2D2D2D2D2D2D2D55534D415254205631
:1055C000332E312D2D2D2D2D2D2D2D2D2D2D2D2D00
:1055D0002D2D2D2D2D2D2D2D2D2D2D200D0A0000A5
:1055E0002020202055534D415254CAC7D3C9414CA5
:1055F00049454E54454BBFAAB7A2B5C4D2BBB8F675
:10560000C1E9C7C9B5C4B4AEBFDAB5F7CAD4BBA542
:10561000BDBBD7E9BCFE2CCDA8B9FD200D0A00000A
:10562000CBFC2CC4E3BFC9D2D4CDA8B9FDB4AEBF66
:10563000DAD6FACAD6B5F7D3C3B3CCD0F2C0EFC32B
:10564000E6B5C4C8CEBACEBAAFCAFD2CB2A2D6B4A3
:10565000D0D02ED2F2B4CB2CC4E3BFC90D0A0000C7
:10566000D2D4CBE6D2E2B8FCB8C4BAAFCAFDB5C456
:10567000CAE4C8EBB2CECAFD28D6A7B3D6CAFDD7B6
:10568000D62831302F3136BDF8D6C629A1A2D7D6BB
:10569000B7FBB4AEA1A2BAAFCAFDC8EB0D0A0000B9
:1056A000BFDAB5D8D6B7B5C8D7F7CEAAB2CECAFD3D
:1056B000292CB5A5B8F6BAAFCAFDD7EEB6E0D6A785
:1056C000B3D63130B8F6CAE4C8EBB2CECAFD2CB2BC
:1056D000A2D6A7B3D6BAAFCAFDB7B5200D0A00004F
:1056E000BBD8D6B5CFD4CABE2ED0C2D4F6B2CECA9D
:1056F000FDCFD4CABEBDF8D6C6C9E8D6C3B9A6C4C4
:10570000DC2CD0C2D4F6BDF8D6C6D7AABBBBB9A68E
:10571000C4DC2E0D0A000000BCBCCAF5D6A7B3D667
:105720003A7777772E6F70656E6564762E636F6D4E
:105730000D0A000055534D415254D3D037B8F6CF1F
:10574000B5CDB3C3FCC1EE3A0D0A00003F3A2020AC
:1057500020202020BBF1C8A1B0EFD6FAD0C5CFA23F
:105760000D0A000068656C703A202020BBF1C8A1CA
:10577000B0EFD6FAD0C5CFA20D0A00006C697374E1
:105780003A202020BFC9D3C3B5C4BAAFCAFDC1D027
:10579000B1ED0D0A0A00000069643A2020202020A3
:1057A000BFC9D3C3BAAFCAFDB5C44944C1D0B1ED76
:1057B0000D0A0A006865783A20202020B2CECAFD82
:1057C0003136BDF8D6C6CFD4CABE2CBAF3B8FABFAC
:1057D000D5B8F12BCAFDD7D6BCB4D6B4D0D0BDF85D
:1057E000D6C6D7AABBBB0D0A0A0000006465633A9F
:1057F00020202020B2CECAFD3130BDF8D6C6CFD48D
:10580000CABE2CBAF3B8FABFD5B8F12BCAFDD7D6A9
:10581000BCB4D6B4D0D0BDF8D6C6D7AABBBB0D0A8F
:105820000A00000072756E74696D653A312CBFAA6A
:10583000C6F4BAAFCAFDD4CBD0D0BCC6CAB13B30D7
:105840002CB9D8B1D5BAAFCAFDD4CBD0D0BCC6CA5A
:10585000B13B0D0A0A000000C7EBB0B4D5D5B3CCFC
:10586000D0F2B1E0D0B4B8F1CABDCAE4C8EBBAAF67
:10587000CAFDC3FBBCB0B2CECAFDB2A2D2D4BBD863
:10588000B3B5BCFCBDE1CAF82E0D0A002D2D2D2D9F
:105890002D2D2D2D2D2D2D2D2D2D2D2D2D2D2D2D38
:1058A0002D2D2D2D2D2D414C49454E54454B2D2D43
:1058B0002D2D2D2D2D2D2D2D2D2D2D2D2D2D2D2D18
:1058C0002D2D2D2D2D2D2D200D0A00002D2D2D2DB2
:1058D0002D2D2D2D2D2D2D2D2D2D2D2D2D2D2D2DF8
:1058E0002D2D2D2D2DBAAFCAFDC7E5B5A52D2D2D1A
:1058F0002D2D2D2D2D2D2D2D2D2D2D2D2D2D2D2DD8
:105900002D2D2D2D2D2D2D2D200D0A00B800002020
:1059100025730D0A00000000EFA000F059FE0020E2
:105920000B901AE0FC4909689DF82C2001EBC2019C
:1059300001AB02AA486803A900F072FCF6480068AF
:105940009DF82C1050F8312003A9F4A000F040FE7F
:105950009DF82C00401CC0B20B90EF48007D9DF8D4
:105960002C108842DEDCAFF2CC3000F031FE83E058
:10597000AFF2D83000F02CFE0BAA03A9204600F0AD
:105980002BFD9DF82C00C8B9694603A800F0BDFBAB
:105990000B909DF82C0020B9E5A0009900F018FEAE
:1059A0000EE09DF82C00042801D002206BE5E3A056
:1059B00000F00EFE0120D849C87501E0022062E522
:1059C000DDA000F005FE57E0DBA000F001FE0BAA11
:1059D00003A9204600F000FD9DF82C00C8B96946D7
:1059E00003A800F092FB0B909DF82C0020B9D8A0E2
:1059F000009900F0EDFD0EE09DF82C00042801D088
:105A0000022040E5D5A000F0E3FD0020C249C875A2
:105A100001E0022037E5C8A000F0DAFD2CE0C6A0C6
:105A200000F0D6FD0BAA03A9204600F0D5FC9DF896
:105A30002C00C8B9694603A800F067FB0B909DF8DD
:105A40002C0078B9B449009881F8EC00084690F829
:105A5000EC0018B1C6A000F0BBFD07E0CBA000F041
:105A6000B7FD03E002200EE502200CE5B2A000F035
:105A7000AFFD01E0012006E500BF002003E510B501
:105A80000121C948FFF7C6FA4FF6FF71C648FFF774
:105A900091FA0021C448FFF78BFA00209E49C1F813
:105AA000F00010BD10B50121BF48FFF7AAFA012888
:105AB00008D19948D0F8F0004FF6FF710844964994
:105AC000C1F8F000B848FFF796FA9349D1F8F01002
:105AD00008449149C1F8F0000846D0F8F00010BD24
